{"@uniswap/lib/contracts/libraries/FixedPoint.sol":{"FixedPoint":{"abi":[{"inputs":[],"name":"Q112","outputs":[{"internalType":"uint256","name":"","type":"uint256"}],"stateMutability":"view","type":"function"},{"inputs":[],"name":"RESOLUTION","outputs":[{"internalType":"uint8","name":"","type":"uint8"}],"stateMutability":"view","type":"function"}],"devdoc":{"methods":{}},"evm":{"bytecode":{"linkReferences":{},"object":"60b9610025600b82828239805160001a60731461001857fe5b30600052607381538281f3fe7300000000000000000000000000000000000000003014608060405260043610603d5760003560e01c80633bf7a83e146042578063552f888a14605a575b600080fd5b60486076565b60408051918252519081900360200190f35b6060607e565b6040805160ff9092168252519081900360200190f35b600160701b81565b60708156fea264697066735822122061beb92a3cea1d95d05e257307a0c050c1da7a83ab5858166e8b7684d9dc22d364736f6c63430006060033","opcodes":"PUSH1 0xB9 PUSH2 0x25 PUSH1 0xB DUP3 DUP3 DUP3 CODECOPY DUP1 MLOAD PUSH1 0x0 BYTE PUSH1 0x73 EQ PUSH2 0x18 JUMPI INVALID JUMPDEST ADDRESS PUSH1 0x0 MSTORE PUSH1 0x73 DUP2 MSTORE8 DUP3 DUP2 RETURN INVALID PUSH20 0x0 ADDRESS EQ PUSH1 0x80 PUSH1 0x40 MSTORE PUSH1 0x4 CALLDATASIZE LT PUSH1 0x3D JUMPI PUSH1 0x0 CALLDATALOAD PUSH1 0xE0 SHR DUP1 PUSH4 0x3BF7A83E EQ PUSH1 0x42 JUMPI DUP1 PUSH4 0x552F888A EQ PUSH1 0x5A JUMPI JUMPDEST PUSH1 0x0 DUP1 REVERT JUMPDEST PUSH1 0x48 PUSH1 0x76 JUMP JUMPDEST PUSH1 0x40 DUP1 MLOAD SWAP2 DUP3 MSTORE MLOAD SWAP1 DUP2 SWAP1 SUB PUSH1 0x20 ADD SWAP1 RETURN JUMPDEST PUSH1 0x60 PUSH1 0x7E JUMP JUMPDEST PUSH1 0x40 DUP1 MLOAD PUSH1 0xFF SWAP1 SWAP3 AND DUP3 MSTORE MLOAD SWAP1 DUP2 SWAP1 SUB PUSH1 0x20 ADD SWAP1 RETURN JUMPDEST PUSH1 0x1 PUSH1 0x70 SHL DUP2 JUMP JUMPDEST PUSH1 0x70 DUP2 JUMP INVALID LOG2 PUSH5 0x6970667358 0x22 SLT KECCAK256 PUSH2 0xBEB9 0x2A EXTCODECOPY 0xEA SAR SWAP6 0xD0 0x5E 0x25 PUSH20 0x7A0C050C1DA7A83AB5858166E8B7684D9DC22D3 PUSH5 0x736F6C6343 STOP MOD MOD STOP CALLER "},"gasEstimates":{"creation":{"codeDepositCost":"37000","executionCost":"115","totalCost":"37115"},"external":{"Q112()":"166","RESOLUTION()":"191"},"internal":{"decode(struct FixedPoint.uq112x112 memory)":"infinite","decode144(struct FixedPoint.uq144x112 memory)":"infinite","divuq(struct FixedPoint.uq112x112 memory,struct FixedPoint.uq112x112 memory)":"infinite","encode(uint112)":"infinite","encode144(uint144)":"infinite","fraction(uint256,uint256)":"infinite","mul(struct FixedPoint.uq112x112 memory,uint256)":"infinite","muli(struct FixedPoint.uq112x112 memory,int256)":"infinite","muluq(struct FixedPoint.uq112x112 memory,struct FixedPoint.uq112x112 memory)":"infinite","reciprocal(struct FixedPoint.uq112x112 memory)":"infinite","sqrt(struct FixedPoint.uq112x112 memory)":"infinite"}},"methodIdentifiers":{"Q112()":"3bf7a83e","RESOLUTION()":"552f888a"}},"storageLayout":{"storage":[],"types":null},"userdoc":{"methods":{}}}}}